{
  "_format": "hh-sol-artifact-1",
  "contractName": "MyNFT",
  "sourceName": "contracts/NFT.sol",
  "abi": [
    {
      "inputs": [],
      "stateMutability": "nonpayable",
      "type": "constructor"
    },
    {
      "anonymous": false,
      "inputs": [
        {
          "indexed": true,
          "internalType": "address",
          "name": "owner",
          "type": "address"
        },
        {
          "indexed": true,
          "internalType": "address",
          "name": "approved",
          "type": "address"
        },
        {
          "indexed": true,
          "internalType": "uint256",
          "name": "tokenId",
          "type": "uint256"
        }
      ],
      "name": "Approval",
      "type": "event"
    },
    {
      "anonymous": false,
      "inputs": [
        {
          "indexed": true,
          "internalType": "address",
          "name": "owner",
          "type": "address"
        },
        {
          "indexed": true,
          "internalType": "address",
          "name": "operator",
          "type": "address"
        },
        {
          "indexed": false,
          "internalType": "bool",
          "name": "approved",
          "type": "bool"
        }
      ],
      "name": "ApprovalForAll",
      "type": "event"
    },
    {
      "anonymous": false,
      "inputs": [
        {
          "indexed": false,
          "internalType": "uint256",
          "name": "_fromTokenId",
          "type": "uint256"
        },
        {
          "indexed": false,
          "internalType": "uint256",
          "name": "_toTokenId",
          "type": "uint256"
        }
      ],
      "name": "BatchMetadataUpdate",
      "type": "event"
    },
    {
      "anonymous": false,
      "inputs": [
        {
          "indexed": false,
          "internalType": "uint256",
          "name": "_tokenId",
          "type": "uint256"
        }
      ],
      "name": "MetadataUpdate",
      "type": "event"
    },
    {
      "anonymous": false,
      "inputs": [
        {
          "indexed": true,
          "internalType": "address",
          "name": "previousOwner",
          "type": "address"
        },
        {
          "indexed": true,
          "internalType": "address",
          "name": "newOwner",
          "type": "address"
        }
      ],
      "name": "OwnershipTransferred",
      "type": "event"
    },
    {
      "anonymous": false,
      "inputs": [
        {
          "indexed": true,
          "internalType": "address",
          "name": "from",
          "type": "address"
        },
        {
          "indexed": true,
          "internalType": "address",
          "name": "to",
          "type": "address"
        },
        {
          "indexed": true,
          "internalType": "uint256",
          "name": "tokenId",
          "type": "uint256"
        }
      ],
      "name": "Transfer",
      "type": "event"
    },
    {
      "inputs": [
        {
          "internalType": "address",
          "name": "to",
          "type": "address"
        },
        {
          "internalType": "uint256",
          "name": "tokenId",
          "type": "uint256"
        }
      ],
      "name": "approve",
      "outputs": [],
      "stateMutability": "nonpayable",
      "type": "function"
    },
    {
      "inputs": [
        {
          "internalType": "address",
          "name": "owner",
          "type": "address"
        }
      ],
      "name": "balanceOf",
      "outputs": [
        {
          "internalType": "uint256",
          "name": "",
          "type": "uint256"
        }
      ],
      "stateMutability": "view",
      "type": "function"
    },
    {
      "inputs": [
        {
          "internalType": "uint256",
          "name": "tokenId",
          "type": "uint256"
        }
      ],
      "name": "getApproved",
      "outputs": [
        {
          "internalType": "address",
          "name": "",
          "type": "address"
        }
      ],
      "stateMutability": "view",
      "type": "function"
    },
    {
      "inputs": [
        {
          "internalType": "address",
          "name": "owner",
          "type": "address"
        },
        {
          "internalType": "address",
          "name": "operator",
          "type": "address"
        }
      ],
      "name": "isApprovedForAll",
      "outputs": [
        {
          "internalType": "bool",
          "name": "",
          "type": "bool"
        }
      ],
      "stateMutability": "view",
      "type": "function"
    },
    {
      "inputs": [],
      "name": "name",
      "outputs": [
        {
          "internalType": "string",
          "name": "",
          "type": "string"
        }
      ],
      "stateMutability": "view",
      "type": "function"
    },
    {
      "inputs": [],
      "name": "owner",
      "outputs": [
        {
          "internalType": "address",
          "name": "",
          "type": "address"
        }
      ],
      "stateMutability": "view",
      "type": "function"
    },
    {
      "inputs": [
        {
          "internalType": "uint256",
          "name": "tokenId",
          "type": "uint256"
        }
      ],
      "name": "ownerOf",
      "outputs": [
        {
          "internalType": "address",
          "name": "",
          "type": "address"
        }
      ],
      "stateMutability": "view",
      "type": "function"
    },
    {
      "inputs": [],
      "name": "renounceOwnership",
      "outputs": [],
      "stateMutability": "nonpayable",
      "type": "function"
    },
    {
      "inputs": [
        {
          "internalType": "address",
          "name": "to",
          "type": "address"
        },
        {
          "internalType": "string",
          "name": "uri",
          "type": "string"
        }
      ],
      "name": "safeMint",
      "outputs": [],
      "stateMutability": "nonpayable",
      "type": "function"
    },
    {
      "inputs": [
        {
          "internalType": "address",
          "name": "from",
          "type": "address"
        },
        {
          "internalType": "address",
          "name": "to",
          "type": "address"
        },
        {
          "internalType": "uint256",
          "name": "tokenId",
          "type": "uint256"
        }
      ],
      "name": "safeTransferFrom",
      "outputs": [],
      "stateMutability": "nonpayable",
      "type": "function"
    },
    {
      "inputs": [
        {
          "internalType": "address",
          "name": "from",
          "type": "address"
        },
        {
          "internalType": "address",
          "name": "to",
          "type": "address"
        },
        {
          "internalType": "uint256",
          "name": "tokenId",
          "type": "uint256"
        },
        {
          "internalType": "bytes",
          "name": "data",
          "type": "bytes"
        }
      ],
      "name": "safeTransferFrom",
      "outputs": [],
      "stateMutability": "nonpayable",
      "type": "function"
    },
    {
      "inputs": [
        {
          "internalType": "address",
          "name": "operator",
          "type": "address"
        },
        {
          "internalType": "bool",
          "name": "approved",
          "type": "bool"
        }
      ],
      "name": "setApprovalForAll",
      "outputs": [],
      "stateMutability": "nonpayable",
      "type": "function"
    },
    {
      "inputs": [
        {
          "internalType": "bytes4",
          "name": "interfaceId",
          "type": "bytes4"
        }
      ],
      "name": "supportsInterface",
      "outputs": [
        {
          "internalType": "bool",
          "name": "",
          "type": "bool"
        }
      ],
      "stateMutability": "view",
      "type": "function"
    },
    {
      "inputs": [],
      "name": "symbol",
      "outputs": [
        {
          "internalType": "string",
          "name": "",
          "type": "string"
        }
      ],
      "stateMutability": "view",
      "type": "function"
    },
    {
      "inputs": [
        {
          "internalType": "uint256",
          "name": "index",
          "type": "uint256"
        }
      ],
      "name": "tokenByIndex",
      "outputs": [
        {
          "internalType": "uint256",
          "name": "",
          "type": "uint256"
        }
      ],
      "stateMutability": "view",
      "type": "function"
    },
    {
      "inputs": [
        {
          "internalType": "address",
          "name": "owner",
          "type": "address"
        },
        {
          "internalType": "uint256",
          "name": "index",
          "type": "uint256"
        }
      ],
      "name": "tokenOfOwnerByIndex",
      "outputs": [
        {
          "internalType": "uint256",
          "name": "",
          "type": "uint256"
        }
      ],
      "stateMutability": "view",
      "type": "function"
    },
    {
      "inputs": [
        {
          "internalType": "uint256",
          "name": "tokenId",
          "type": "uint256"
        }
      ],
      "name": "tokenURI",
      "outputs": [
        {
          "internalType": "string",
          "name": "",
          "type": "string"
        }
      ],
      "stateMutability": "view",
      "type": "function"
    },
    {
      "inputs": [],
      "name": "totalSupply",
      "outputs": [
        {
          "internalType": "uint256",
          "name": "",
          "type": "uint256"
        }
      ],
      "stateMutability": "view",
      "type": "function"
    },
    {
      "inputs": [
        {
          "internalType": "address",
          "name": "from",
          "type": "address"
        },
        {
          "internalType": "address",
          "name": "to",
          "type": "address"
        },
        {
          "internalType": "uint256",
          "name": "tokenId",
          "type": "uint256"
        }
      ],
      "name": "transferFrom",
      "outputs": [],
      "stateMutability": "nonpayable",
      "type": "function"
    },
    {
      "inputs": [
        {
          "internalType": "address",
          "name": "newOwner",
          "type": "address"
        }
      ],
      "name": "transferOwnership",
      "outputs": [],
      "stateMutability": "nonpayable",
      "type": "function"
    }
  ],
  "bytecode": "0x608060405234801561001057600080fd5b5060405180604001604052806005815260200164135e53919560da1b815250604051806040016040528060048152602001631353919560e21b815250816000908161005b919061017b565b506001610068828261017b565b50505061008161007c61008660201b60201c565b61008a565b610239565b3390565b600b80546001600160a01b038381166001600160a01b0319831681179093556040519116919082907f8be0079c531659141344cd1fd0a4f28419497f9722a3daafe3b4186f6b6457e090600090a35050565b634e487b7160e01b600052604160045260246000fd5b600181811c9082168061010657607f821691505b60208210810361012657634e487b7160e01b600052602260045260246000fd5b50919050565b601f82111561017657806000526020600020601f840160051c810160208510156101535750805b601f840160051c820191505b81811015610173576000815560010161015f565b50505b505050565b81516001600160401b03811115610194576101946100dc565b6101a8816101a284546100f2565b8461012c565b6020601f8211600181146101dc57600083156101c45750848201515b600019600385901b1c1916600184901b178455610173565b600084815260208120601f198516915b8281101561020c57878501518255602094850194600190920191016101ec565b508482101561022a5786840151600019600387901b60f8161c191681555b50505050600190811b01905550565b611d2e806102486000396000f3fe608060405234801561001057600080fd5b506004361061012c5760003560e01c806370a08231116100ad578063b88d4fde11610071578063b88d4fde14610266578063c87b56dd14610279578063d204c45e1461028c578063e985e9c51461029f578063f2fde38b146102db57600080fd5b806370a082311461021f578063715018a6146102325780638da5cb5b1461023a57806395d89b411461024b578063a22cb4651461025357600080fd5b806323b872dd116100f457806323b872dd146101c05780632f745c59146101d357806342842e0e146101e65780634f6ccce7146101f95780636352211e1461020c57600080fd5b806301ffc9a71461013157806306fdde0314610159578063081812fc1461016e578063095ea7b31461019957806318160ddd146101ae575b600080fd5b61014461013f3660046116c9565b6102ee565b60405190151581526020015b60405180910390f35b6101616102ff565b6040516101509190611736565b61018161017c366004611749565b610391565b6040516001600160a01b039091168152602001610150565b6101ac6101a736600461177e565b6103b8565b005b6009545b604051908152602001610150565b6101ac6101ce3660046117a8565b6104d2565b6101b26101e136600461177e565b610503565b6101ac6101f43660046117a8565b610599565b6101b2610207366004611749565b6105b4565b61018161021a366004611749565b610647565b6101b261022d3660046117e5565b6106a7565b6101ac61072d565b600b546001600160a01b0316610181565b610161610741565b6101ac610261366004611800565b610750565b6101ac6102743660046118cc565b61075f565b610161610287366004611749565b610797565b6101ac61029a366004611948565b6107a2565b6101446102ad3660046119aa565b6001600160a01b03918216600090815260056020908152604080832093909416825291909152205460ff1690565b6101ac6102e93660046117e5565b6107cd565b60006102f982610846565b92915050565b60606000805461030e906119dd565b80601f016020809104026020016040519081016040528092919081815260200182805461033a906119dd565b80156103875780601f1061035c57610100808354040283529160200191610387565b820191906000526020600020905b81548152906001019060200180831161036a57829003601f168201915b5050505050905090565b600061039c8261086b565b506000908152600460205260409020546001600160a01b031690565b60006103c382610647565b9050806001600160a01b0316836001600160a01b0316036104355760405162461bcd60e51b815260206004820152602160248201527f4552433732313a20617070726f76616c20746f2063757272656e74206f776e656044820152603960f91b60648201526084015b60405180910390fd5b336001600160a01b0382161480610451575061045181336102ad565b6104c35760405162461bcd60e51b815260206004820152603d60248201527f4552433732313a20617070726f76652063616c6c6572206973206e6f7420746f60448201527f6b656e206f776e6572206f7220617070726f76656420666f7220616c6c000000606482015260840161042c565b6104cd83836108ca565b505050565b6104dc3382610938565b6104f85760405162461bcd60e51b815260040161042c90611a17565b6104cd8383836109b7565b600061050e836106a7565b82106105705760405162461bcd60e51b815260206004820152602b60248201527f455243373231456e756d657261626c653a206f776e657220696e646578206f7560448201526a74206f6620626f756e647360a81b606482015260840161042c565b506001600160a01b03919091166000908152600760209081526040808320938352929052205490565b6104cd8383836040518060200160405280600081525061075f565b60006105bf60095490565b82106106225760405162461bcd60e51b815260206004820152602c60248201527f455243373231456e756d657261626c653a20676c6f62616c20696e646578206f60448201526b7574206f6620626f756e647360a01b606482015260840161042c565b6009828154811061063557610635611a64565b90600052602060002001549050919050565b6000818152600260205260408120546001600160a01b0316806102f95760405162461bcd60e51b8152602060048201526018602482015277115490cdcc8c4e881a5b9d985b1a59081d1bdad95b88125160421b604482015260640161042c565b60006001600160a01b0382166107115760405162461bcd60e51b815260206004820152602960248201527f4552433732313a2061646472657373207a65726f206973206e6f7420612076616044820152683634b21037bbb732b960b91b606482015260840161042c565b506001600160a01b031660009081526003602052604090205490565b610735610b28565b61073f6000610b82565b565b60606001805461030e906119dd565b61075b338383610bd4565b5050565b6107693383610938565b6107855760405162461bcd60e51b815260040161042c90611a17565b61079184848484610ca2565b50505050565b60606102f982610cd5565b600c8054600091826107b383611a90565b9190505590506107c38382610ddd565b6104cd8183610df7565b6107d5610b28565b6001600160a01b03811661083a5760405162461bcd60e51b815260206004820152602660248201527f4f776e61626c653a206e6577206f776e657220697320746865207a65726f206160448201526564647265737360d01b606482015260840161042c565b61084381610b82565b50565b60006001600160e01b0319821663780e9d6360e01b14806102f957506102f982610ec2565b6000818152600260205260409020546001600160a01b03166108435760405162461bcd60e51b8152602060048201526018602482015277115490cdcc8c4e881a5b9d985b1a59081d1bdad95b88125160421b604482015260640161042c565b600081815260046020526040902080546001600160a01b0319166001600160a01b03841690811790915581906108ff82610647565b6001600160a01b03167f8c5be1e5ebec7d5bd14f71427d1e84f3dd0314c0f7b2291e5b200ac8c7c3b92560405160405180910390a45050565b60008061094483610647565b9050806001600160a01b0316846001600160a01b0316148061098b57506001600160a01b0380821660009081526005602090815260408083209388168352929052205460ff165b806109af5750836001600160a01b03166109a484610391565b6001600160a01b0316145b949350505050565b826001600160a01b03166109ca82610647565b6001600160a01b0316146109f05760405162461bcd60e51b815260040161042c90611aa9565b6001600160a01b038216610a525760405162461bcd60e51b8152602060048201526024808201527f4552433732313a207472616e7366657220746f20746865207a65726f206164646044820152637265737360e01b606482015260840161042c565b610a5f8383836001610ee7565b826001600160a01b0316610a7282610647565b6001600160a01b031614610a985760405162461bcd60e51b815260040161042c90611aa9565b600081815260046020908152604080832080546001600160a01b03199081169091556001600160a01b0387811680865260038552838620805460001901905590871680865283862080546001019055868652600290945282852080549092168417909155905184937fddf252ad1be2c89b69c2b068fc378daa952ba7f163c4a11628f55a4df523b3ef91a4505050565b600b546001600160a01b0316331461073f5760405162461bcd60e51b815260206004820181905260248201527f4f776e61626c653a2063616c6c6572206973206e6f7420746865206f776e6572604482015260640161042c565b600b80546001600160a01b038381166001600160a01b0319831681179093556040519116919082907f8be0079c531659141344cd1fd0a4f28419497f9722a3daafe3b4186f6b6457e090600090a35050565b816001600160a01b0316836001600160a01b031603610c355760405162461bcd60e51b815260206004820152601960248201527f4552433732313a20617070726f766520746f2063616c6c657200000000000000604482015260640161042c565b6001600160a01b03838116600081815260056020908152604080832094871680845294825291829020805460ff191686151590811790915591519182527f17307eab39ab6107e8899845ad3d59bd9653f200f220920489ca2b5937696c31910160405180910390a3505050565b610cad8484846109b7565b610cb984848484610ef3565b6107915760405162461bcd60e51b815260040161042c90611aee565b6060610ce08261086b565b60008281526006602052604081208054610cf9906119dd565b80601f0160208091040260200160405190810160405280929190818152602001828054610d25906119dd565b8015610d725780601f10610d4757610100808354040283529160200191610d72565b820191906000526020600020905b815481529060010190602001808311610d5557829003601f168201915b505050505090506000610d9060408051602081019091526000815290565b90508051600003610da2575092915050565b815115610dd4578082604051602001610dbc929190611b40565b60405160208183030381529060405292505050919050565b6109af84610ff4565b61075b828260405180602001604052806000815250611068565b6000828152600260205260409020546001600160a01b0316610e725760405162461bcd60e51b815260206004820152602e60248201527f45524337323155524953746f726167653a2055524920736574206f66206e6f6e60448201526d32bc34b9ba32b73a103a37b5b2b760911b606482015260840161042c565b6000828152600660205260409020610e8a8282611bb6565b506040518281527ff8e1a15aba9398e019f0b49df1a4fde98ee17ae345cb5f6b5e2c27f5033e8ce79060200160405180910390a15050565b60006001600160e01b03198216632483248360e11b14806102f957506102f98261109b565b610791848484846110eb565b60006001600160a01b0384163b15610fe957604051630a85bd0160e11b81526001600160a01b0385169063150b7a0290610f37903390899088908890600401611c75565b6020604051808303816000875af1925050508015610f72575060408051601f3d908101601f19168201909252610f6f91810190611cb2565b60015b610fcf573d808015610fa0576040519150601f19603f3d011682016040523d82523d6000602084013e610fa5565b606091505b508051600003610fc75760405162461bcd60e51b815260040161042c90611aee565b805181602001fd5b6001600160e01b031916630a85bd0160e11b1490506109af565b506001949350505050565b6060610fff8261086b565b600061101660408051602081019091526000815290565b905060008151116110365760405180602001604052806000815250611061565b806110408461121f565b604051602001611051929190611b40565b6040516020818303038152906040525b9392505050565b61107283836112b2565b61107f6000848484610ef3565b6104cd5760405162461bcd60e51b815260040161042c90611aee565b60006001600160e01b031982166380ac58cd60e01b14806110cc57506001600160e01b03198216635b5e139f60e01b145b806102f957506301ffc9a760e01b6001600160e01b03198316146102f9565b600181111561115a5760405162461bcd60e51b815260206004820152603560248201527f455243373231456e756d657261626c653a20636f6e7365637574697665207472604482015274185b9cd9995c9cc81b9bdd081cdd5c1c1bdc9d1959605a1b606482015260840161042c565b816001600160a01b0385166111b6576111b181600980546000838152600a60205260408120829055600182018355919091527f6e1540171b6c0c960b71a7020d9f60077f6af931a8bbf590da0223dacf75c7af0155565b6111d9565b836001600160a01b0316856001600160a01b0316146111d9576111d9858261144b565b6001600160a01b0384166111f5576111f0816114e8565b611218565b846001600160a01b0316846001600160a01b031614611218576112188482611597565b5050505050565b6060600061122c836115db565b600101905060008167ffffffffffffffff81111561124c5761124c61183c565b6040519080825280601f01601f191660200182016040528015611276576020820181803683370190505b5090508181016020015b600019016f181899199a1a9b1b9c1cb0b131b232b360811b600a86061a8153600a850494508461128057509392505050565b6001600160a01b0382166113085760405162461bcd60e51b815260206004820181905260248201527f4552433732313a206d696e7420746f20746865207a65726f2061646472657373604482015260640161042c565b6000818152600260205260409020546001600160a01b03161561136d5760405162461bcd60e51b815260206004820152601c60248201527f4552433732313a20746f6b656e20616c7265616479206d696e74656400000000604482015260640161042c565b61137b600083836001610ee7565b6000818152600260205260409020546001600160a01b0316156113e05760405162461bcd60e51b815260206004820152601c60248201527f4552433732313a20746f6b656e20616c7265616479206d696e74656400000000604482015260640161042c565b6001600160a01b038216600081815260036020908152604080832080546001019055848352600290915280822080546001600160a01b0319168417905551839291907fddf252ad1be2c89b69c2b068fc378daa952ba7f163c4a11628f55a4df523b3ef908290a45050565b60006001611458846106a7565b6114629190611ccf565b6000838152600860205260409020549091508082146114b5576001600160a01b03841660009081526007602090815260408083208584528252808320548484528184208190558352600890915290208190555b5060009182526008602090815260408084208490556001600160a01b039094168352600781528383209183525290812055565b6009546000906114fa90600190611ccf565b6000838152600a60205260408120546009805493945090928490811061152257611522611a64565b90600052602060002001549050806009838154811061154357611543611a64565b6000918252602080832090910192909255828152600a9091526040808220849055858252812055600980548061157b5761157b611ce2565b6001900381819060005260206000200160009055905550505050565b60006115a2836106a7565b6001600160a01b039093166000908152600760209081526040808320868452825280832085905593825260089052919091209190915550565b60008072184f03e93ff9f4daa797ed6e38ed64bf6a1f0160401b831061161a5772184f03e93ff9f4daa797ed6e38ed64bf6a1f0160401b830492506040015b6d04ee2d6d415b85acef81000000008310611646576d04ee2d6d415b85acef8100000000830492506020015b662386f26fc10000831061166457662386f26fc10000830492506010015b6305f5e100831061167c576305f5e100830492506008015b612710831061169057612710830492506004015b606483106116a2576064830492506002015b600a83106102f95760010192915050565b6001600160e01b03198116811461084357600080fd5b6000602082840312156116db57600080fd5b8135611061816116b3565b60005b838110156117015781810151838201526020016116e9565b50506000910152565b600081518084526117228160208601602086016116e6565b601f01601f19169290920160200192915050565b602081526000611061602083018461170a565b60006020828403121561175b57600080fd5b5035919050565b80356001600160a01b038116811461177957600080fd5b919050565b6000806040838503121561179157600080fd5b61179a83611762565b946020939093013593505050565b6000806000606084860312156117bd57600080fd5b6117c684611762565b92506117d460208501611762565b929592945050506040919091013590565b6000602082840312156117f757600080fd5b61106182611762565b6000806040838503121561181357600080fd5b61181c83611762565b91506020830135801515811461183157600080fd5b809150509250929050565b634e487b7160e01b600052604160045260246000fd5b60008067ffffffffffffffff84111561186d5761186d61183c565b50604051601f19601f85018116603f0116810181811067ffffffffffffffff8211171561189c5761189c61183c565b6040528381529050808284018510156118b457600080fd5b83836020830137600060208583010152509392505050565b600080600080608085870312156118e257600080fd5b6118eb85611762565b93506118f960208601611762565b925060408501359150606085013567ffffffffffffffff81111561191c57600080fd5b8501601f8101871361192d57600080fd5b61193c87823560208401611852565b91505092959194509250565b6000806040838503121561195b57600080fd5b61196483611762565b9150602083013567ffffffffffffffff81111561198057600080fd5b8301601f8101851361199157600080fd5b6119a085823560208401611852565b9150509250929050565b600080604083850312156119bd57600080fd5b6119c683611762565b91506119d460208401611762565b90509250929050565b600181811c908216806119f157607f821691505b602082108103611a1157634e487b7160e01b600052602260045260246000fd5b50919050565b6020808252602d908201527f4552433732313a2063616c6c6572206973206e6f7420746f6b656e206f776e6560408201526c1c881bdc88185c1c1c9bdd9959609a1b606082015260800190565b634e487b7160e01b600052603260045260246000fd5b634e487b7160e01b600052601160045260246000fd5b600060018201611aa257611aa2611a7a565b5060010190565b60208082526025908201527f4552433732313a207472616e736665722066726f6d20696e636f72726563742060408201526437bbb732b960d91b606082015260800190565b60208082526032908201527f4552433732313a207472616e7366657220746f206e6f6e20455243373231526560408201527131b2b4bb32b91034b6b83632b6b2b73a32b960711b606082015260800190565b60008351611b528184602088016116e6565b835190830190611b668183602088016116e6565b01949350505050565b601f8211156104cd57806000526020600020601f840160051c81016020851015611b965750805b601f840160051c820191505b818110156112185760008155600101611ba2565b815167ffffffffffffffff811115611bd057611bd061183c565b611be481611bde84546119dd565b84611b6f565b6020601f821160018114611c185760008315611c005750848201515b600019600385901b1c1916600184901b178455611218565b600084815260208120601f198516915b82811015611c485787850151825560209485019460019092019101611c28565b5084821015611c665786840151600019600387901b60f8161c191681555b50505050600190811b01905550565b6001600160a01b0385811682528416602082015260408101839052608060608201819052600090611ca89083018461170a565b9695505050505050565b600060208284031215611cc457600080fd5b8151611061816116b3565b818103818111156102f9576102f9611a7a565b634e487b7160e01b600052603160045260246000fdfea26469706673582212209a1ad518a1156f8c3a4d8ca96eef0397bac9b6f53a88d9278a959afaeb20fbf764736f6c634300081b0033",
  "linkReferences": {},
  "deployedLinkReferences": {}
}