{
  "_format": "hh-sol-artifact-1",
  "contractName": "BookComment",
  "sourceName": "contracts/BookComment.sol",
  "abi": [
    {
      "inputs": [],
      "stateMutability": "nonpayable",
      "type": "constructor"
    },
    {
      "anonymous": false,
      "inputs": [
        {
          "indexed": true,
          "internalType": "address",
          "name": "owner",
          "type": "address"
        },
        {
          "indexed": true,
          "internalType": "address",
          "name": "approved",
          "type": "address"
        },
        {
          "indexed": true,
          "internalType": "uint256",
          "name": "tokenId",
          "type": "uint256"
        }
      ],
      "name": "Approval",
      "type": "event"
    },
    {
      "anonymous": false,
      "inputs": [
        {
          "indexed": true,
          "internalType": "address",
          "name": "owner",
          "type": "address"
        },
        {
          "indexed": true,
          "internalType": "address",
          "name": "operator",
          "type": "address"
        },
        {
          "indexed": false,
          "internalType": "bool",
          "name": "approved",
          "type": "bool"
        }
      ],
      "name": "ApprovalForAll",
      "type": "event"
    },
    {
      "anonymous": false,
      "inputs": [
        {
          "indexed": true,
          "internalType": "uint256",
          "name": "tokenId",
          "type": "uint256"
        },
        {
          "indexed": false,
          "internalType": "string",
          "name": "bookId",
          "type": "string"
        },
        {
          "indexed": false,
          "internalType": "uint256",
          "name": "chapterId",
          "type": "uint256"
        },
        {
          "indexed": true,
          "internalType": "address",
          "name": "author",
          "type": "address"
        },
        {
          "indexed": false,
          "internalType": "uint256",
          "name": "timestamp",
          "type": "uint256"
        }
      ],
      "name": "CommentAdded",
      "type": "event"
    },
    {
      "anonymous": false,
      "inputs": [
        {
          "indexed": true,
          "internalType": "address",
          "name": "previousOwner",
          "type": "address"
        },
        {
          "indexed": true,
          "internalType": "address",
          "name": "newOwner",
          "type": "address"
        }
      ],
      "name": "OwnershipTransferred",
      "type": "event"
    },
    {
      "anonymous": false,
      "inputs": [
        {
          "indexed": true,
          "internalType": "address",
          "name": "from",
          "type": "address"
        },
        {
          "indexed": true,
          "internalType": "address",
          "name": "to",
          "type": "address"
        },
        {
          "indexed": true,
          "internalType": "uint256",
          "name": "tokenId",
          "type": "uint256"
        }
      ],
      "name": "Transfer",
      "type": "event"
    },
    {
      "inputs": [
        {
          "internalType": "string",
          "name": "bookId",
          "type": "string"
        },
        {
          "internalType": "uint256",
          "name": "chapterId",
          "type": "uint256"
        },
        {
          "internalType": "string",
          "name": "selectedText",
          "type": "string"
        },
        {
          "internalType": "string",
          "name": "commentText",
          "type": "string"
        },
        {
          "internalType": "uint256",
          "name": "timestamp",
          "type": "uint256"
        }
      ],
      "name": "addComment",
      "outputs": [
        {
          "internalType": "uint256",
          "name": "",
          "type": "uint256"
        }
      ],
      "stateMutability": "nonpayable",
      "type": "function"
    },
    {
      "inputs": [
        {
          "internalType": "address",
          "name": "to",
          "type": "address"
        },
        {
          "internalType": "uint256",
          "name": "tokenId",
          "type": "uint256"
        }
      ],
      "name": "approve",
      "outputs": [],
      "stateMutability": "nonpayable",
      "type": "function"
    },
    {
      "inputs": [
        {
          "internalType": "address",
          "name": "owner",
          "type": "address"
        }
      ],
      "name": "balanceOf",
      "outputs": [
        {
          "internalType": "uint256",
          "name": "",
          "type": "uint256"
        }
      ],
      "stateMutability": "view",
      "type": "function"
    },
    {
      "inputs": [
        {
          "internalType": "uint256",
          "name": "",
          "type": "uint256"
        }
      ],
      "name": "comments",
      "outputs": [
        {
          "internalType": "string",
          "name": "bookId",
          "type": "string"
        },
        {
          "internalType": "uint256",
          "name": "chapterId",
          "type": "uint256"
        },
        {
          "internalType": "string",
          "name": "selectedText",
          "type": "string"
        },
        {
          "internalType": "string",
          "name": "commentText",
          "type": "string"
        },
        {
          "internalType": "uint256",
          "name": "timestamp",
          "type": "uint256"
        },
        {
          "internalType": "address",
          "name": "author",
          "type": "address"
        }
      ],
      "stateMutability": "view",
      "type": "function"
    },
    {
      "inputs": [
        {
          "internalType": "uint256",
          "name": "tokenId",
          "type": "uint256"
        }
      ],
      "name": "getApproved",
      "outputs": [
        {
          "internalType": "address",
          "name": "",
          "type": "address"
        }
      ],
      "stateMutability": "view",
      "type": "function"
    },
    {
      "inputs": [
        {
          "internalType": "uint256",
          "name": "tokenId",
          "type": "uint256"
        }
      ],
      "name": "getComment",
      "outputs": [
        {
          "components": [
            {
              "internalType": "string",
              "name": "bookId",
              "type": "string"
            },
            {
              "internalType": "uint256",
              "name": "chapterId",
              "type": "uint256"
            },
            {
              "internalType": "string",
              "name": "selectedText",
              "type": "string"
            },
            {
              "internalType": "string",
              "name": "commentText",
              "type": "string"
            },
            {
              "internalType": "uint256",
              "name": "timestamp",
              "type": "uint256"
            },
            {
              "internalType": "address",
              "name": "author",
              "type": "address"
            }
          ],
          "internalType": "struct BookComment.Comment",
          "name": "",
          "type": "tuple"
        }
      ],
      "stateMutability": "view",
      "type": "function"
    },
    {
      "inputs": [],
      "name": "getCurrentTokenId",
      "outputs": [
        {
          "internalType": "uint256",
          "name": "",
          "type": "uint256"
        }
      ],
      "stateMutability": "view",
      "type": "function"
    },
    {
      "inputs": [
        {
          "internalType": "address",
          "name": "owner",
          "type": "address"
        },
        {
          "internalType": "address",
          "name": "operator",
          "type": "address"
        }
      ],
      "name": "isApprovedForAll",
      "outputs": [
        {
          "internalType": "bool",
          "name": "",
          "type": "bool"
        }
      ],
      "stateMutability": "view",
      "type": "function"
    },
    {
      "inputs": [],
      "name": "name",
      "outputs": [
        {
          "internalType": "string",
          "name": "",
          "type": "string"
        }
      ],
      "stateMutability": "view",
      "type": "function"
    },
    {
      "inputs": [],
      "name": "owner",
      "outputs": [
        {
          "internalType": "address",
          "name": "",
          "type": "address"
        }
      ],
      "stateMutability": "view",
      "type": "function"
    },
    {
      "inputs": [
        {
          "internalType": "uint256",
          "name": "tokenId",
          "type": "uint256"
        }
      ],
      "name": "ownerOf",
      "outputs": [
        {
          "internalType": "address",
          "name": "",
          "type": "address"
        }
      ],
      "stateMutability": "view",
      "type": "function"
    },
    {
      "inputs": [],
      "name": "renounceOwnership",
      "outputs": [],
      "stateMutability": "nonpayable",
      "type": "function"
    },
    {
      "inputs": [
        {
          "internalType": "address",
          "name": "from",
          "type": "address"
        },
        {
          "internalType": "address",
          "name": "to",
          "type": "address"
        },
        {
          "internalType": "uint256",
          "name": "tokenId",
          "type": "uint256"
        }
      ],
      "name": "safeTransferFrom",
      "outputs": [],
      "stateMutability": "nonpayable",
      "type": "function"
    },
    {
      "inputs": [
        {
          "internalType": "address",
          "name": "from",
          "type": "address"
        },
        {
          "internalType": "address",
          "name": "to",
          "type": "address"
        },
        {
          "internalType": "uint256",
          "name": "tokenId",
          "type": "uint256"
        },
        {
          "internalType": "bytes",
          "name": "data",
          "type": "bytes"
        }
      ],
      "name": "safeTransferFrom",
      "outputs": [],
      "stateMutability": "nonpayable",
      "type": "function"
    },
    {
      "inputs": [
        {
          "internalType": "address",
          "name": "operator",
          "type": "address"
        },
        {
          "internalType": "bool",
          "name": "approved",
          "type": "bool"
        }
      ],
      "name": "setApprovalForAll",
      "outputs": [],
      "stateMutability": "nonpayable",
      "type": "function"
    },
    {
      "inputs": [
        {
          "internalType": "bytes4",
          "name": "interfaceId",
          "type": "bytes4"
        }
      ],
      "name": "supportsInterface",
      "outputs": [
        {
          "internalType": "bool",
          "name": "",
          "type": "bool"
        }
      ],
      "stateMutability": "view",
      "type": "function"
    },
    {
      "inputs": [],
      "name": "symbol",
      "outputs": [
        {
          "internalType": "string",
          "name": "",
          "type": "string"
        }
      ],
      "stateMutability": "view",
      "type": "function"
    },
    {
      "inputs": [
        {
          "internalType": "uint256",
          "name": "tokenId",
          "type": "uint256"
        }
      ],
      "name": "tokenURI",
      "outputs": [
        {
          "internalType": "string",
          "name": "",
          "type": "string"
        }
      ],
      "stateMutability": "view",
      "type": "function"
    },
    {
      "inputs": [
        {
          "internalType": "address",
          "name": "from",
          "type": "address"
        },
        {
          "internalType": "address",
          "name": "to",
          "type": "address"
        },
        {
          "internalType": "uint256",
          "name": "tokenId",
          "type": "uint256"
        }
      ],
      "name": "transferFrom",
      "outputs": [],
      "stateMutability": "nonpayable",
      "type": "function"
    },
    {
      "inputs": [
        {
          "internalType": "address",
          "name": "newOwner",
          "type": "address"
        }
      ],
      "name": "transferOwnership",
      "outputs": [],
      "stateMutability": "nonpayable",
      "type": "function"
    }
  ],
  "bytecode": "0x608060405234801561001057600080fd5b506040518060400160405280600b81526020016a109bdbdad0dbdb5b595b9d60aa1b815250604051806040016040528060058152602001641092d0d35560da1b81525081600090816100629190610182565b50600161006f8282610182565b50505061008861008361008d60201b60201c565b610091565b610240565b3390565b600680546001600160a01b038381166001600160a01b0319831681179093556040519116919082907f8be0079c531659141344cd1fd0a4f28419497f9722a3daafe3b4186f6b6457e090600090a35050565b634e487b7160e01b600052604160045260246000fd5b600181811c9082168061010d57607f821691505b60208210810361012d57634e487b7160e01b600052602260045260246000fd5b50919050565b601f82111561017d57806000526020600020601f840160051c8101602085101561015a5750805b601f840160051c820191505b8181101561017a5760008155600101610166565b50505b505050565b81516001600160401b0381111561019b5761019b6100e3565b6101af816101a984546100f9565b84610133565b6020601f8211600181146101e357600083156101cb5750848201515b600019600385901b1c1916600184901b17845561017a565b600084815260208120601f198516915b8281101561021357878501518255602094850194600190920191016101f3565b50848210156102315786840151600019600387901b60f8161c191681555b50505050600190811b01905550565b611d9a8061024f6000396000f3fe608060405234801561001057600080fd5b506004361061012c5760003560e01c8063715018a6116100ad578063b88d4fde11610071578063b88d4fde14610289578063c87b56dd1461029c578063e985e9c5146102af578063f2fde38b146102eb578063fb57c0b7146102fe57600080fd5b8063715018a6146102305780638da5cb5b146102385780638ebb4c151461024957806395d89b411461026e578063a22cb4651461027657600080fd5b806323b872dd116100f457806323b872dd146101ce57806342842e0e146101e157806356189236146101f45780636352211e1461020a57806370a082311461021d57600080fd5b806301ffc9a71461013157806306fdde03146101595780630800e3001461016e578063081812fc1461018e578063095ea7b3146101b9575b600080fd5b61014461013f366004611623565b610311565b60405190151581526020015b60405180910390f35b610161610363565b6040516101509190611690565b61018161017c3660046116a3565b6103f5565b60405161015091906116bc565b6101a161019c3660046116a3565b610695565b6040516001600160a01b039091168152602001610150565b6101cc6101c7366004611765565b6106bc565b005b6101cc6101dc36600461178f565b6107d1565b6101cc6101ef36600461178f565b610802565b6101fc61081d565b604051908152602001610150565b6101a16102183660046116a3565b61082d565b6101fc61022b3660046117cc565b61088d565b6101cc610913565b6006546001600160a01b03166101a1565b61025c6102573660046116a3565b610927565b604051610150969594939291906117e7565b610161610afd565b6101cc61028436600461184a565b610b0c565b6101cc610297366004611916565b610b1b565b6101616102aa3660046116a3565b610b53565b6101446102bd366004611992565b6001600160a01b03918216600090815260056020908152604080832093909416825291909152205460ff1690565b6101cc6102f93660046117cc565b610bc7565b6101fc61030c3660046119e5565b610c40565b60006001600160e01b031982166380ac58cd60e01b148061034257506001600160e01b03198216635b5e139f60e01b145b8061035d57506301ffc9a760e01b6001600160e01b03198316145b92915050565b60606000805461037290611a8b565b80601f016020809104026020016040519081016040528092919081815260200182805461039e90611a8b565b80156103eb5780601f106103c0576101008083540402835291602001916103eb565b820191906000526020600020905b8154815290600101906020018083116103ce57829003601f168201915b5050505050905090565b6104376040518060c00160405280606081526020016000815260200160608152602001606081526020016000815260200160006001600160a01b031681525090565b6000828152600260205260409020546001600160a01b03166104995760405162461bcd60e51b815260206004820152601660248201527510dbdb5b595b9d08191bd95cc81b9bdd08195e1a5cdd60521b60448201526064015b60405180910390fd5b60008281526008602052604090819020815160c081019092528054829082906104c190611a8b565b80601f01602080910402602001604051908101604052809291908181526020018280546104ed90611a8b565b801561053a5780601f1061050f5761010080835404028352916020019161053a565b820191906000526020600020905b81548152906001019060200180831161051d57829003601f168201915b505050505081526020016001820154815260200160028201805461055d90611a8b565b80601f016020809104026020016040519081016040528092919081815260200182805461058990611a8b565b80156105d65780601f106105ab576101008083540402835291602001916105d6565b820191906000526020600020905b8154815290600101906020018083116105b957829003601f168201915b505050505081526020016003820180546105ef90611a8b565b80601f016020809104026020016040519081016040528092919081815260200182805461061b90611a8b565b80156106685780601f1061063d57610100808354040283529160200191610668565b820191906000526020600020905b81548152906001019060200180831161064b57829003601f168201915b5050509183525050600482015460208201526005909101546001600160a01b031660409091015292915050565b60006106a082610d6c565b506000908152600460205260409020546001600160a01b031690565b60006106c78261082d565b9050806001600160a01b0316836001600160a01b0316036107345760405162461bcd60e51b815260206004820152602160248201527f4552433732313a20617070726f76616c20746f2063757272656e74206f776e656044820152603960f91b6064820152608401610490565b336001600160a01b0382161480610750575061075081336102bd565b6107c25760405162461bcd60e51b815260206004820152603d60248201527f4552433732313a20617070726f76652063616c6c6572206973206e6f7420746f60448201527f6b656e206f776e6572206f7220617070726f76656420666f7220616c6c0000006064820152608401610490565b6107cc8383610dcb565b505050565b6107db3382610e39565b6107f75760405162461bcd60e51b815260040161049090611ac5565b6107cc838383610eb8565b6107cc83838360405180602001604052806000815250610b1b565b600061082860075490565b905090565b6000818152600260205260408120546001600160a01b03168061035d5760405162461bcd60e51b8152602060048201526018602482015277115490cdcc8c4e881a5b9d985b1a59081d1bdad95b88125160421b6044820152606401610490565b60006001600160a01b0382166108f75760405162461bcd60e51b815260206004820152602960248201527f4552433732313a2061646472657373207a65726f206973206e6f7420612076616044820152683634b21037bbb732b960b91b6064820152608401610490565b506001600160a01b031660009081526003602052604090205490565b61091b61101c565b6109256000611076565b565b60086020526000908152604090208054819061094290611a8b565b80601f016020809104026020016040519081016040528092919081815260200182805461096e90611a8b565b80156109bb5780601f10610990576101008083540402835291602001916109bb565b820191906000526020600020905b81548152906001019060200180831161099e57829003601f168201915b5050505050908060010154908060020180546109d690611a8b565b80601f0160208091040260200160405190810160405280929190818152602001828054610a0290611a8b565b8015610a4f5780601f10610a2457610100808354040283529160200191610a4f565b820191906000526020600020905b815481529060010190602001808311610a3257829003601f168201915b505050505090806003018054610a6490611a8b565b80601f0160208091040260200160405190810160405280929190818152602001828054610a9090611a8b565b8015610add5780601f10610ab257610100808354040283529160200191610add565b820191906000526020600020905b815481529060010190602001808311610ac057829003601f168201915b5050505060048301546005909301549192916001600160a01b0316905086565b60606001805461037290611a8b565b610b173383836110c8565b5050565b610b253383610e39565b610b415760405162461bcd60e51b815260040161049090611ac5565b610b4d84848484611196565b50505050565b6060610b5e82610d6c565b6000610b7560408051602081019091526000815290565b90506000815111610b955760405180602001604052806000815250610bc0565b80610b9f846111c9565b604051602001610bb0929190611b12565b6040516020818303038152906040525b9392505050565b610bcf61101c565b6001600160a01b038116610c345760405162461bcd60e51b815260206004820152602660248201527f4f776e61626c653a206e6577206f776e657220697320746865207a65726f206160448201526564647265737360d01b6064820152608401610490565b610c3d81611076565b50565b6000610c50600780546001019055565b6000610c5b60075490565b6040805160c08101825289815260208082018a905281830189905260608201889052608082018790523360a08301526000848152600890915291909120815192935090918190610cab9082611b8f565b506020820151600182015560408201516002820190610cca9082611b8f565b5060608201516003820190610cdf9082611b8f565b506080820151600482015560a090910151600590910180546001600160a01b0319166001600160a01b03909216919091179055610d1c338261125c565b336001600160a01b0316817f17f355de6f7cf681feff809077f7dfcc8ce5372289c4a3330dae257e0201fad6898987604051610d5a93929190611c4e565b60405180910390a39695505050505050565b6000818152600260205260409020546001600160a01b0316610c3d5760405162461bcd60e51b8152602060048201526018602482015277115490cdcc8c4e881a5b9d985b1a59081d1bdad95b88125160421b6044820152606401610490565b600081815260046020526040902080546001600160a01b0319166001600160a01b0384169081179091558190610e008261082d565b6001600160a01b03167f8c5be1e5ebec7d5bd14f71427d1e84f3dd0314c0f7b2291e5b200ac8c7c3b92560405160405180910390a45050565b600080610e458361082d565b9050806001600160a01b0316846001600160a01b03161480610e8c57506001600160a01b0380821660009081526005602090815260408083209388168352929052205460ff165b80610eb05750836001600160a01b0316610ea584610695565b6001600160a01b0316145b949350505050565b826001600160a01b0316610ecb8261082d565b6001600160a01b031614610ef15760405162461bcd60e51b815260040161049090611c73565b6001600160a01b038216610f535760405162461bcd60e51b8152602060048201526024808201527f4552433732313a207472616e7366657220746f20746865207a65726f206164646044820152637265737360e01b6064820152608401610490565b826001600160a01b0316610f668261082d565b6001600160a01b031614610f8c5760405162461bcd60e51b815260040161049090611c73565b600081815260046020908152604080832080546001600160a01b03199081169091556001600160a01b0387811680865260038552838620805460001901905590871680865283862080546001019055868652600290945282852080549092168417909155905184937fddf252ad1be2c89b69c2b068fc378daa952ba7f163c4a11628f55a4df523b3ef91a4505050565b6006546001600160a01b031633146109255760405162461bcd60e51b815260206004820181905260248201527f4f776e61626c653a2063616c6c6572206973206e6f7420746865206f776e65726044820152606401610490565b600680546001600160a01b038381166001600160a01b0319831681179093556040519116919082907f8be0079c531659141344cd1fd0a4f28419497f9722a3daafe3b4186f6b6457e090600090a35050565b816001600160a01b0316836001600160a01b0316036111295760405162461bcd60e51b815260206004820152601960248201527f4552433732313a20617070726f766520746f2063616c6c6572000000000000006044820152606401610490565b6001600160a01b03838116600081815260056020908152604080832094871680845294825291829020805460ff191686151590811790915591519182527f17307eab39ab6107e8899845ad3d59bd9653f200f220920489ca2b5937696c31910160405180910390a3505050565b6111a1848484610eb8565b6111ad84848484611276565b610b4d5760405162461bcd60e51b815260040161049090611cb8565b606060006111d683611377565b600101905060008167ffffffffffffffff8111156111f6576111f6611886565b6040519080825280601f01601f191660200182016040528015611220576020820181803683370190505b5090508181016020015b600019016f181899199a1a9b1b9c1cb0b131b232b360811b600a86061a8153600a850494508461122a57509392505050565b610b1782826040518060200160405280600081525061144f565b60006001600160a01b0384163b1561136c57604051630a85bd0160e11b81526001600160a01b0385169063150b7a02906112ba903390899088908890600401611d0a565b6020604051808303816000875af19250505080156112f5575060408051601f3d908101601f191682019092526112f291810190611d47565b60015b611352573d808015611323576040519150601f19603f3d011682016040523d82523d6000602084013e611328565b606091505b50805160000361134a5760405162461bcd60e51b815260040161049090611cb8565b805181602001fd5b6001600160e01b031916630a85bd0160e11b149050610eb0565b506001949350505050565b60008072184f03e93ff9f4daa797ed6e38ed64bf6a1f0160401b83106113b65772184f03e93ff9f4daa797ed6e38ed64bf6a1f0160401b830492506040015b6d04ee2d6d415b85acef810000000083106113e2576d04ee2d6d415b85acef8100000000830492506020015b662386f26fc10000831061140057662386f26fc10000830492506010015b6305f5e1008310611418576305f5e100830492506008015b612710831061142c57612710830492506004015b6064831061143e576064830492506002015b600a831061035d5760010192915050565b6114598383611482565b6114666000848484611276565b6107cc5760405162461bcd60e51b815260040161049090611cb8565b6001600160a01b0382166114d85760405162461bcd60e51b815260206004820181905260248201527f4552433732313a206d696e7420746f20746865207a65726f20616464726573736044820152606401610490565b6000818152600260205260409020546001600160a01b03161561153d5760405162461bcd60e51b815260206004820152601c60248201527f4552433732313a20746f6b656e20616c7265616479206d696e746564000000006044820152606401610490565b6000818152600260205260409020546001600160a01b0316156115a25760405162461bcd60e51b815260206004820152601c60248201527f4552433732313a20746f6b656e20616c7265616479206d696e746564000000006044820152606401610490565b6001600160a01b038216600081815260036020908152604080832080546001019055848352600290915280822080546001600160a01b0319168417905551839291907fddf252ad1be2c89b69c2b068fc378daa952ba7f163c4a11628f55a4df523b3ef908290a45050565b6001600160e01b031981168114610c3d57600080fd5b60006020828403121561163557600080fd5b8135610bc08161160d565b60005b8381101561165b578181015183820152602001611643565b50506000910152565b6000815180845261167c816020860160208601611640565b601f01601f19169290920160200192915050565b602081526000610bc06020830184611664565b6000602082840312156116b557600080fd5b5035919050565b602081526000825160c060208401526116d860e0840182611664565b9050602084015160408401526040840151601f198483030160608501526116ff8282611664565b9150506060840151601f1984830301608085015261171d8282611664565b608086015160a086810191909152909501516001600160a01b031660c090940193909352509192915050565b80356001600160a01b038116811461176057600080fd5b919050565b6000806040838503121561177857600080fd5b61178183611749565b946020939093013593505050565b6000806000606084860312156117a457600080fd5b6117ad84611749565b92506117bb60208501611749565b929592945050506040919091013590565b6000602082840312156117de57600080fd5b610bc082611749565b60c0815260006117fa60c0830189611664565b87602084015282810360408401526118128188611664565b905082810360608401526118268187611664565b608084019590955250506001600160a01b039190911660a090910152949350505050565b6000806040838503121561185d57600080fd5b61186683611749565b91506020830135801515811461187b57600080fd5b809150509250929050565b634e487b7160e01b600052604160045260246000fd5b60008067ffffffffffffffff8411156118b7576118b7611886565b50604051601f19601f85018116603f0116810181811067ffffffffffffffff821117156118e6576118e6611886565b6040528381529050808284018510156118fe57600080fd5b83836020830137600060208583010152509392505050565b6000806000806080858703121561192c57600080fd5b61193585611749565b935061194360208601611749565b925060408501359150606085013567ffffffffffffffff81111561196657600080fd5b8501601f8101871361197757600080fd5b6119868782356020840161189c565b91505092959194509250565b600080604083850312156119a557600080fd5b6119ae83611749565b91506119bc60208401611749565b90509250929050565b600082601f8301126119d657600080fd5b610bc08383356020850161189c565b600080600080600060a086880312156119fd57600080fd5b853567ffffffffffffffff811115611a1457600080fd5b611a20888289016119c5565b95505060208601359350604086013567ffffffffffffffff811115611a4457600080fd5b611a50888289016119c5565b935050606086013567ffffffffffffffff811115611a6d57600080fd5b611a79888289016119c5565b95989497509295608001359392505050565b600181811c90821680611a9f57607f821691505b602082108103611abf57634e487b7160e01b600052602260045260246000fd5b50919050565b6020808252602d908201527f4552433732313a2063616c6c6572206973206e6f7420746f6b656e206f776e6560408201526c1c881bdc88185c1c1c9bdd9959609a1b606082015260800190565b60008351611b24818460208801611640565b835190830190611b38818360208801611640565b01949350505050565b601f8211156107cc57806000526020600020601f840160051c81016020851015611b685750805b601f840160051c820191505b81811015611b885760008155600101611b74565b5050505050565b815167ffffffffffffffff811115611ba957611ba9611886565b611bbd81611bb78454611a8b565b84611b41565b6020601f821160018114611bf15760008315611bd95750848201515b600019600385901b1c1916600184901b178455611b88565b600084815260208120601f198516915b82811015611c215787850151825560209485019460019092019101611c01565b5084821015611c3f5786840151600019600387901b60f8161c191681555b50505050600190811b01905550565b606081526000611c616060830186611664565b60208301949094525060400152919050565b60208082526025908201527f4552433732313a207472616e736665722066726f6d20696e636f72726563742060408201526437bbb732b960d91b606082015260800190565b60208082526032908201527f4552433732313a207472616e7366657220746f206e6f6e20455243373231526560408201527131b2b4bb32b91034b6b83632b6b2b73a32b960711b606082015260800190565b6001600160a01b0385811682528416602082015260408101839052608060608201819052600090611d3d90830184611664565b9695505050505050565b600060208284031215611d5957600080fd5b8151610bc08161160d56fea2646970667358221220e3ae4c9b17d7475a8e2b6871ddc591c0f972f3e38af86d0385c29a4c822f161364736f6c634300081b0033",
  "linkReferences": {},
  "deployedLinkReferences": {}
}