{
  "_format": "hh-sol-artifact-1",
  "contractName": "NFTMarketplace",
  "sourceName": "contracts/NFTMarketplace.sol",
  "abi": [
    {
      "inputs": [],
      "stateMutability": "nonpayable",
      "type": "constructor"
    },
    {
      "anonymous": false,
      "inputs": [
        {
          "indexed": true,
          "internalType": "uint256",
          "name": "itemId",
          "type": "uint256"
        },
        {
          "indexed": true,
          "internalType": "address",
          "name": "nftContract",
          "type": "address"
        },
        {
          "indexed": true,
          "internalType": "uint256",
          "name": "tokenId",
          "type": "uint256"
        },
        {
          "indexed": false,
          "internalType": "address",
          "name": "seller",
          "type": "address"
        },
        {
          "indexed": false,
          "internalType": "address",
          "name": "owner",
          "type": "address"
        },
        {
          "indexed": false,
          "internalType": "uint256",
          "name": "price",
          "type": "uint256"
        },
        {
          "indexed": false,
          "internalType": "bool",
          "name": "sold",
          "type": "bool"
        }
      ],
      "name": "MarketItemCreated",
      "type": "event"
    },
    {
      "inputs": [
        {
          "internalType": "address",
          "name": "nftContract",
          "type": "address"
        },
        {
          "internalType": "uint256",
          "name": "tokenId",
          "type": "uint256"
        },
        {
          "internalType": "uint256",
          "name": "price",
          "type": "uint256"
        }
      ],
      "name": "createMarketItem",
      "outputs": [],
      "stateMutability": "payable",
      "type": "function"
    },
    {
      "inputs": [
        {
          "internalType": "address",
          "name": "nftContract",
          "type": "address"
        },
        {
          "internalType": "uint256",
          "name": "itemId",
          "type": "uint256"
        }
      ],
      "name": "createMarketSale",
      "outputs": [],
      "stateMutability": "payable",
      "type": "function"
    },
    {
      "inputs": [],
      "name": "fetchMarketItems",
      "outputs": [
        {
          "components": [
            {
              "internalType": "uint256",
              "name": "itemId",
              "type": "uint256"
            },
            {
              "internalType": "address",
              "name": "nftContract",
              "type": "address"
            },
            {
              "internalType": "uint256",
              "name": "tokenId",
              "type": "uint256"
            },
            {
              "internalType": "address payable",
              "name": "seller",
              "type": "address"
            },
            {
              "internalType": "address payable",
              "name": "owner",
              "type": "address"
            },
            {
              "internalType": "uint256",
              "name": "price",
              "type": "uint256"
            },
            {
              "internalType": "bool",
              "name": "sold",
              "type": "bool"
            }
          ],
          "internalType": "struct NFTMarketplace.MarketItem[]",
          "name": "",
          "type": "tuple[]"
        }
      ],
      "stateMutability": "view",
      "type": "function"
    },
    {
      "inputs": [],
      "name": "getListingPrice",
      "outputs": [
        {
          "internalType": "uint256",
          "name": "",
          "type": "uint256"
        }
      ],
      "stateMutability": "view",
      "type": "function"
    },
    {
      "inputs": [],
      "name": "listingPrice",
      "outputs": [
        {
          "internalType": "uint256",
          "name": "",
          "type": "uint256"
        }
      ],
      "stateMutability": "view",
      "type": "function"
    },
    {
      "inputs": [
        {
          "internalType": "uint256",
          "name": "_listingPrice",
          "type": "uint256"
        }
      ],
      "name": "updateListingPrice",
      "outputs": [],
      "stateMutability": "payable",
      "type": "function"
    }
  ],
  "bytecode": "0x60806040526658d15e17628000600455348015601a57600080fd5b506001600055600380546001600160a01b0319163317905561092c806100416000396000f3fe6080604052600436106100555760003560e01c80630f08efe01461005a57806312e855851461008557806358eb2df5146100a4578063ae677aa3146100b9578063c23b139e146100cc578063c78f19f9146100df575b600080fd5b34801561006657600080fd5b5061006f6100f5565b60405161007c9190610760565b60405180910390f35b34801561009157600080fd5b506004545b60405190815260200161007c565b6100b76100b2366004610812565b6102a4565b005b6100b76100c7366004610845565b6104e6565b6100b76100da36600461085e565b61055b565b3480156100eb57600080fd5b5061009660045481565b6060600061010260015490565b9050600061010f60025490565b60015461011c919061089e565b90506000808267ffffffffffffffff81111561013a5761013a6108b7565b6040519080825280602002602001820160405280156101a157816020015b6040805160e08101825260008082526020808301829052928201819052606082018190526080820181905260a0820181905260c082015282526000199092019101816101585790505b50905060005b8481101561029b5760006005816101bf8460016108cd565b81526020810191909152604001600020600401546001600160a01b0316036102935760006101ee8260016108cd565b600081815260056020818152604092839020835160e0810185528154815260018201546001600160a01b0390811693820193909352600282015494810194909452600381015482166060850152600481015490911660808401529081015460a0830152600681015460ff16151560c0830152855192935091859087908110610278576102786108e0565b602090810291909101015261028e6001866108cd565b945050505b6001016101a7565b50949350505050565b6102ac610707565b600081116102f75760405162461bcd60e51b81526020600482015260136024820152720e4bbb7e6a0bce5bf85e9a1bbe5a4a7e4ba8e3606c1b60448201526064015b60405180910390fd5b60045434146103485760405162461bcd60e51b815260206004820152601860248201527fe5bf85e9a1bbe694afe4bb98e4b88ae69eb6e8b4b9e794a8000000000000000060448201526064016102ee565b610356600180546001019055565b600061036160015490565b6040805160e0810182528281526001600160a01b0387811660208084018281528486018a8152336060870181815260006080890181815260a08a018e815260c08b018381528d8452600598899052928c90209a518b55955160018b018054918b166001600160a01b0319928316179055945160028b0155915160038a018054918a1691861691909117905590516004808a01805492909916919094161790965591519286019290925592516006909401805494151560ff199095169490941790935592516323b872dd60e01b81529182015230602482015260448101869052919250906323b872dd90606401600060405180830381600087803b15801561046757600080fd5b505af115801561047b573d6000803e3d6000fd5b505060408051338152600060208201819052818301879052606082015290518693506001600160a01b038816925084917f045dfa01dcba2b36aba1d3dc4a874f4b0c5d2fbeb8d2c4b34a7d88c8d8f929d1919081900360800190a4506104e16001600055565b505050565b6003546001600160a01b031633146105565760405162461bcd60e51b815260206004820152602d60248201527fe58faae69c89e5b882e59cbae68ba5e69c89e88085e6898de883bde69bb4e69660448201526c161c97115cd3d6dd16973cf295609b1b60648201526084016102ee565b600455565b610563610707565b6000818152600560208190526040909120908101546002909101543482146105cd5760405162461bcd60e51b815260206004820152601860248201527fe8afb7e694afe4bb98e8a681e6b182e79a84e4bbb7e6a0bc000000000000000060448201526064016102ee565b6000838152600560205260408082206003015490516001600160a01b03909116913480156108fc02929091818181858888f19350505050158015610615573d6000803e3d6000fd5b506040516323b872dd60e01b8152306004820152336024820152604481018290526001600160a01b038516906323b872dd90606401600060405180830381600087803b15801561066457600080fd5b505af1158015610678573d6000803e3d6000fd5b50505060008481526005602052604090206004810180546001600160a01b03191633179055600601805460ff19166001179055506106ba600280546001019055565b6003546004546040516001600160a01b039092169181156108fc0291906000818181858888f193505050501580156106f6573d6000803e3d6000fd5b5050506107036001600055565b5050565b6002600054036107595760405162461bcd60e51b815260206004820152601f60248201527f5265656e7472616e637947756172643a207265656e7472616e742063616c6c0060448201526064016102ee565b6002600055565b602080825282518282018190526000918401906040840190835b818110156107eb578351805184526020808201516001600160a01b0390811682870152604080840151908701526060808401518216908701526080808401519091169086015260a0808301519086015260c0918201511515918501919091529093019260e09092019160010161077a565b509095945050505050565b80356001600160a01b038116811461080d57600080fd5b919050565b60008060006060848603121561082757600080fd5b610830846107f6565b95602085013595506040909401359392505050565b60006020828403121561085757600080fd5b5035919050565b6000806040838503121561087157600080fd5b61087a836107f6565b946020939093013593505050565b634e487b7160e01b600052601160045260246000fd5b818103818111156108b1576108b1610888565b92915050565b634e487b7160e01b600052604160045260246000fd5b808201808211156108b1576108b1610888565b634e487b7160e01b600052603260045260246000fdfea264697066735822122038243904e3cf2565b92656d4cef848e4553ab817edfe35f41864e0f2da8d147864736f6c634300081b0033",
  "linkReferences": {},
  "deployedLinkReferences": {}
}